:100000000C94C1010C94D3010C94D3010C94D30132
:100010000C94FC030C94E8020C94D3010C94D301CF
:100020000C94D3010C94D3010C94D3010C94D30100
:100030000C94D3010C94D3010C94D3010C94D301F0
:100040000C949E020C94D3010C94D3010C94D30114
:100050000C94D3010C94D3010C94D3010C94D301D0
:100060000C94D3010C94D301D804DA04DE04E00428
:10007000E204E704EC04FC04FC04F104FC04FC04CA
:10008000C50400D100CDCBC9CAD400D2D0CECC0992
:100090006000000000000051310000005A53415739
:1000A0003200004358444534330000205646545231
:1000B0003500004E42484759360000004D4A55373A
:1000C0003800002C4B494F303900002E2F4C3B504C
:1000D0002D00000027005B3D0000D5000D5D005C99
:1000E000000000000000000008000031003437006C
:1000F0000000302E323536380000D32B332D2A390C
:10010000000000D100CDCBC9CAD400D2D0CECC09DA
:100110007E00000000000071210000007A7361770A
:1001200040000063786465242300002076667472C2
:100130002500006E626867795E0000006D6A7526B2
:100140002A00003C6B696F292800003E3F6C3A7022
:100150005F00000022007B2B0000D5000D7D007C9D
:1001600000000000000000000800003100343700EB
:100170000000302E323536380000D32B332D2A398B
:10018000000000D100CDCBC9CAD400D2D0CECC095A
:100190006000000000000071310000007A73617798
:1001A0003200006378646534330000207666747230
:1001B0003500006E62686779360000006D6A753739
:1001C0003800002C6B696F303900002E2F6C3B70AB
:1001D0002D00000027005B3D0000D5000D5D005C98
:1001E000000000000000000008000031003437006B
:1001F0000000302E323536380000D32B332D2A390B
:10020000000000D100CDCBC9CAD400D2D0CECC09D9
:100210007E00000000000051210000005A534157A9
:1002200040000043584445242300002056465452C1
:100230002500004E424847595E0000004D4A5526B1
:100240002A00003C4B494F292800003E3F4C3A50C1
:100250005F00000022007B2B0000D5000D7D007C9C
:1002600000000000000000000800003100343700EA
:100270000000302E323536380000D32B332D2A398A
:10028000000000000000000000000000000000006E
:10029000000000D90000D7000000000000000000AE
:1002A00000E800000000000000E90000000000007D
:1002B00000EA000000000000000000000000000054
:1002C0000000000000000000000000002F000000FF
:1002D00000000000000000E500000000FB0000003E
:1002E0000000000000000000000000E700E2E40061
:1002F0000000DEDFE100E3E000000000E60000E5D2
:10030000ED00000000000000000000000000000000
:10031000000000D90000D70000000000000000002D
:1003200000E800000000000000E9000000000000FC
:1003300000EA0000000000000000000000000000D3
:100340000000000000000000000000002F0000007E
:1003500000000000000000E500000000FB000000BD
:100360000000000000000000000000E700E2E400E0
:100370000000DEDFE100E3E000000000E60000E551
:10038000ED0011241FBECFEFD8E0DEBFCDBF21E0CE
:10039000A0E0B1E001C01D92AD33B207E1F70E94C9
:1003A0000F040C9432050C940000E82FF0E0662353
:1003B00041F0442319F0EE5FFC4F14C0EE57FD4F9F
:1003C00011C0222341F0442319F0EE5FFE4F0AC012
:1003D000EE57FF4F07C0442319F0EE5FFD4F02C0F8
:1003E000EE57FE4F84910895539808955B98539A61
:1003F0000895599A0895EF92FF921F93CF93DF9338
:10040000EC01599880ED97E04A9902C00197E1F715
:100410005A98529A84E592E00197F1F70E94F6010A
:10042000529882E090E00197F1F788E99AE329B1C8
:10043000122F147022FD04C0CE0120E031E003C071
:100440000197A9F725C0009739F02327AC01415047
:10045000510984239523F7CF211101C0D16099E080
:10046000E92EF12CC0FF03C00E94F40102C00E94DB
:10047000F60180ED97E04A9905C00197E1F70E94E7
:10048000F40125C080ED97E04A9B05C00197E1F794
:100490000E94F40115C0D695C79581E0E81AF108CD
:1004A00009F70E94F40180ED97E04B9B03C0019790
:1004B000E1F706C080ED97E04A9B06C00197E1F79F
:1004C0000E94F90110E003C00E94F90111E0812FA0
:1004D000DF91CF911F91FF90EF900895CF93DF931D
:1004E000D0913901C1E0C09334018DEE90E00E94BB
:1004F000FB01882321F0D0933601C093370110927D
:100500003401DF91CF9108953199FECF109201010E
:1005100085B900005C9800005C9A809101018823F5
:10052000E1F30895CF93C82F8BE10E94840282E10A
:100530000E9484028C2FCF910C9484021F920F9200
:100540000FB60F9211242F933F938F939F93AF93E6
:10055000BF938091080190910901A0910A01B09187
:100560000B013091070126E0230F2D3720F402966E
:10057000A11DB11D05C029E8230F0396A11DB11DC2
:10058000209307018093080190930901A0930A0129
:10059000B0930B018091030190910401A09105019A
:1005A000B09106010196A11DB11D809303019093A6
:1005B0000401A0930501B0930601BF91AF919F91F3
:1005C0008F913F912F910F900FBE0F901F90189514
:1005D0001F920F920FB60F9211242F933F934F93B8
:1005E0005F936F937F938F939F93AF93BF93EF939B
:1005F000FF934A99F0C0809134018111ECC0809141
:100600001301811108C04B9924C081E0809313012C
:100610001092110125C080911101883080F44B9B0C
:100620000CC09091120121E030E0082E01C0220F91
:100630000A94EAF7292B209312018F5F03C08830B8
:1006400021F489E080931101C6C010921301109229
:10065000110180911201803F31F481E08093020109
:1006600010921201B8C0809112018A3F21F481E0FA
:1006700080933801B0C0809112018E3F21F481E057
:1006800080933501A8C080911201803E21F481E061
:1006900080931001A0C080911201813E21F481E07D
:1006A00080930F0198C080910F01882349F08091B9
:1006B0001201873729F080911201843109F088C036
:1006C0008091020120913A01882309F440C0809171
:1006D0001201823111F410920D01809112018935BD
:1006E00011F410920C011092020180910D01811100
:1006F00007C080910C0141E0811103C040E001C0BE
:1007000041E060911001809112010E94D501109288
:1007100010018F3F09F45FC0E82FF0E023E0F5956A
:10072000E7952A95E1F7EC5EFE4F9081482F4770E0
:1007300021E030E001C0220F4A95EAF720952923F5
:10074000208380930E018FEF80933B013DC0809109
:100750001201823119F481E080930D018091120120
:10076000893519F481E080930C0180910D0181118C
:1007700007C080910C0141E0811103C040E001C03D
:1007800041E060911001809112010E94D501109208
:1007900010018F3F01F1E82FF0E093E0F595E79528
:1007A0009A95E1F7EC5EFE4F9081482F477021E06B
:1007B00030E001C0220F4A95EAF7292B208380936D
:1007C0003B018FEF80930E0181E080933C0103C0D9
:1007D00010920F0175CFFF91EF91BF91AF919F9153
:1007E0008F917F916F915F914F913F912F910F90DA
:1007F0000FBE0F901F9018951F920F920FB60F9279
:1008000011248F9388B181708093000181E08093DF
:1008100001018F910F900FBE0F901F901895789443
:1008200084B5826084BD84B5816084BD85B58260F5
:1008300085BD85B5816085BD80916E0081608093A6
:100840006E0010928100809181008260809381000F
:10085000809181008160809381008091800081601F
:10086000809380008091B10084608093B10080917A
:10087000B00081608093B00080917A0084608093A2
:100880007A0080917A00826080937A0080917A0069
:100890008E7F80937A0080917A00806880937A00BE
:1008A0001092C1008091680084608093680080E0AD
:1008B00090E0FC01EC5EFE4F1082019680329105C3
:1008C000C1F71092130110921201109211011092AF
:1008D000100110920F0110923C01CFEFC0933B0129
:1008E000C0930E011092340110920D0110920C0170
:1008F00010923701109238011092350110923A018E
:10090000109239015A9A80916D00846080936D0035
:100910008AB183608AB9589A0E94F9015F985D9AFA
:100920005C9A5E9880E690E00197F1F75E9A15B8C0
:10093000C4B98AB1806F8AB988B1836088B980915F
:100940006C00816080936C0080916800826080936D
:1009500068007894C0E0D0E080913C01882309F4DD
:100960005DC080913B018F3F09F456C05898E091DB
:100970003B018E2F90E0FC01E95CF109ED30F105BF
:10098000D8F5EC5CFF4F0C94350590913A0181E06D
:10099000911180E080933A0180913901911102C058
:1009A000846001C08B7F809339010E946E022CC04D
:1009B00080E001C081E00E94920226C082E0FBCF6D
:1009C00083E0F9CF8BE10E9484028FE41BC08BE1AE
:1009D0000E94840287E516C08BE10E94840285E4B0
:1009E00011C08BE10E94840286E20E9484028BE1A6
:1009F0000E94840282E506C080913B0187FD04C00D
:100A000080913B010E94840280913B018D3019F45A
:100A10008AE00E948402589A10923C018091380129
:100A2000882391F080913701882361F081E08093E1
:100A300034018091360190E00E94FB011092340154
:100A4000109237011092380180913501882321F0EE
:100A50001092370110923501209709F47DCF0E9442
:100A600000007ACFF8940C943B05EE0FFF1F059021
:0A0A7000F491E02D0994F894FFCFF3
:00000001FF
